{
  "contractName": "SimpleStorage",
  "abi": [
    {
      "inputs": [
        {
          "internalType": "uint256",
          "name": "",
          "type": "uint256"
        }
      ],
      "name": "storedValues",
      "outputs": [
        {
          "internalType": "uint256",
          "name": "",
          "type": "uint256"
        }
      ],
      "stateMutability": "view",
      "type": "function",
      "constant": true
    },
    {
      "inputs": [
        {
          "internalType": "uint256",
          "name": "_value",
          "type": "uint256"
        }
      ],
      "name": "set",
      "outputs": [],
      "stateMutability": "nonpayable",
      "type": "function"
    },
    {
      "inputs": [],
      "name": "getAll",
      "outputs": [
        {
          "internalType": "uint256[]",
          "name": "",
          "type": "uint256[]"
        }
      ],
      "stateMutability": "view",
      "type": "function",
      "constant": true
    },
    {
      "inputs": [],
      "name": "get",
      "outputs": [
        {
          "internalType": "uint256",
          "name": "",
          "type": "uint256"
        }
      ],
      "stateMutability": "view",
      "type": "function",
      "constant": true
    }
  ],
  "bytecode": "0x608060405234801561001057600080fd5b50610498806100206000396000f3fe608060405234801561001057600080fd5b506004361061004c5760003560e01c806353ed51431461005157806360fe47b11461006f5780636d4ce63c1461008b5780639e258efe146100a9575b600080fd5b6100596100d9565b6040516100669190610337565b60405180910390f35b6100896004803603810190610084919061023a565b610131565b005b61009361015d565b6040516100a09190610379565b60405180910390f35b6100c360048036038101906100be919061023a565b610201565b6040516100d09190610379565b60405180910390f35b6060600080548060200260200160405190810160405280929190818152602001828054801561012757602002820191906000526020600020905b815481526020019060010190808311610113575b5050505050905090565b600081908060018154018082558091505060019003906000526020600020016000909190919091505550565b600080600080549050116101a6576040517f08c379a000000000000000000000000000000000000000000000000000000000815260040161019d90610359565b60405180910390fd5b600060016000805490506101ba91906103de565b815481106101f1577f4e487b7100000000000000000000000000000000000000000000000000000000600052603260045260246000fd5b9060005260206000200154905090565b6000818154811061021157600080fd5b906000526020600020016000915090505481565b6000813590506102348161044b565b92915050565b60006020828403121561024c57600080fd5b600061025a84828501610225565b91505092915050565b600061026f8383610319565b60208301905092915050565b6000610286826103a4565b61029081856103bc565b935061029b83610394565b8060005b838110156102cc5781516102b38882610263565b97506102be836103af565b92505060018101905061029f565b5085935050505092915050565b60006102e66011836103cd565b91507f4e6f2076616c7565732073746f7265642e0000000000000000000000000000006000830152602082019050919050565b61032281610412565b82525050565b61033181610412565b82525050565b60006020820190508181036000830152610351818461027b565b905092915050565b60006020820190508181036000830152610372816102d9565b9050919050565b600060208201905061038e6000830184610328565b92915050565b6000819050602082019050919050565b600081519050919050565b6000602082019050919050565b600082825260208201905092915050565b600082825260208201905092915050565b60006103e982610412565b91506103f483610412565b9250828210156104075761040661041c565b5b828203905092915050565b6000819050919050565b7f4e487b7100000000000000000000000000000000000000000000000000000000600052601160045260246000fd5b61045481610412565b811461045f57600080fd5b5056fea26469706673582212205f4837d9f2dbf640102bb277fef0fefd5c1e1466766dbd84d1558c669b64928464736f6c63430008000033",
  "immutableReferences": {},
  "source": "pragma solidity ^0.8.0;\n\ncontract SimpleStorage {\n    // Store multiple numbers\n    uint[] public storedValues;\n\n    // Set multiple values\n    function set(uint _value) public {\n        storedValues.push(_value); // Add the new value to the array\n    }\n\n    // Get all stored values\n    function getAll() public view returns (uint[] memory) {\n        return storedValues;\n    }\n\n    // Get the latest stored value\n    function get() public view returns (uint) {\n        require(storedValues.length > 0, \"No values stored.\");\n        return storedValues[storedValues.length - 1];\n    }\n}\n",
  "sourcePath": "/Users/sumitbhathesar/understanding-smart-contracts/contracts/SimpleStorage.sol",
  "compiler": {
    "name": "solc",
    "version": "0.8.0+commit.c7dfd78e.Emscripten.clang"
  },
  "schemaVersion": "3.4.16",
  "updatedAt": "2025-04-16T18:14:27.133Z",
  "networkType": "ethereum",
  "devdoc": {
    "kind": "dev",
    "methods": {},
    "version": 1
  },
  "userdoc": {
    "kind": "user",
    "methods": {},
    "version": 1
  }
}